:020000040800F2
:10000000A004002045010008FB050008A704000823
:1000100041050008ED010008170B00080000000072
:100020000000000000000000000000007907000848
:10003000F1010008000000008106000865080008C2
:100040005F0100085F0100085F0100085F01000810
:100050005F0100085F010008F50100085F0100086A
:100060005F01000821020008490200085F01000842
:100070005F0100085F0100085F0100085F010008E0
:100080005F0100085F0100085F0100085F010008D0
:100090005F0100085F0100085F0100085F010008C0
:1000A0005F0100085F0100085F0100085F010008B0
:1000B0005F0100085F0100085F0100085F010008A0
:1000C0005F0100085F0100085F0100085F01000890
:1000D0005F0100085F0100085F0100085F01000880
:1000E0005F0100085F0100085F0100085F01000870
:1000F0005F0100085F0100085F0100085F01000860
:100100005F0100085F0100085F0100085F0100084F
:100110005F0100085F0100085F0100085F0100083F
:100120005F0100085F0100085F0100085F0100082F
:10013000DFF80CD000F018F800480047850B0008E5
:10014000A00400200648804706480047FEE7FEE777
:10015000FEE7FEE7FEE7FEE7FEE7FEE7FEE7FEE777
:100160009908000831010008064C074D06E0E068D8
:1001700040F0010394E8070098471034AC42F6D3EE
:10018000FFF7DAFF040C0008240C000808B5012171
:10019000402000F077FA4FF48070ADF800000320A3
:1001A0008DF8020010208DF803006946044800F025
:1001B000EBF84FF48071024800F071F908BD0000BF
:1001C000000C014010B54FF48071024800F067F94F
:1001D00010BD0000000C014010B54FF480710248C2
:1001E00000F05FF910BD0000000C014000BFFEE709
:1001F0007047000010B5012000F048F8012808D130
:100200000A2000F099FC05480068012801D1FFF799
:10021000D9FF012000F034F810BD00000001214298
:1002200010B5082000F032F8012807D10A2000F0AC
:1002300083FC0448006808B9FFF7CEFF082000F0EF
:100240001FF810BD0C01234210B5102000F01EF85D
:1002500001280FD10A2000F06FFC0848006848B957
:1002600006488430006808B9012000E000200349F6
:1002700084310860102000F003F810BD1001234203
:100280000149086070470000140401400146002045
:100290000022074B1B6803EA0102054B14331B685D
:1002A0000B4013B10AB1012000E0002070470000AC
:1002B00000040140002123498279002A3AD00A46ED
:1002C000126803689A430B461A600A1D1268036895
:1002D0009A430B1D1A60027911440A6803681A4395
:1002E0000A60184A0832126803689A43154B0833AB
:1002F0001A601A1D126803689A43124B0C331A6075
:100300004279102A0ED11A1F126803681A430D4B46
:1003100008331A601A1D126803681A43094B0C331C
:100320001A600DE00749427911440A6803681A43CC
:100330000A6005E0027911440A6803689A430A607A
:10034000704700000004014030B500228B071C0FED
:100350000F2303FA04F20B4B8C1053F82430934311
:10036000084C8D1044F8253023468C1053F8243067
:100370008C07240F00FA04F42343024C8D1044F838
:10038000253030BD080001402DE9F041024600252E
:100390000026002000230024002791F803C00CF061
:1003A0000F0591F803C00CF0100CBCF1000F03D046
:1003B00091F802C04CEA050591F800C0BCF1000FAD
:1003C00031D0146800202BE04FF0010C0CFA00F340
:1003D000B1F800C00CEA03069E4220D183004FF022
:1003E0000F0C0CFA03F7BC4305FA03FC4CEA0404B7
:1003F00091F803C0BCF1280F06D14FF0010C0CFAA4
:1004000000FCC2F814C00AE091F803C0BCF1480F28
:1004100005D14FF0010C0CFA00FCC2F810C0401CD2
:100420000828D1D31460B1F800C0BCF1FF0F34DD4F
:10043000546800202EE000F1080C4FF0010808FA83
:100440000CF3B1F800C00CEA03069E4221D18300F0
:100450004FF00F0C0CFA03F7BC4305FA03FC4CEA0F
:10046000040491F803C0BCF1280F05D100F1080C79
:1004700008FA0CF8C2F8148091F803C0BCF1480FD8
:1004800007D100F1080C4FF0010808FA0CF8C2F887
:100490001080401C0828CED35460BDE8F081416133
:1004A00070470161704700BFFEE700001CB50121E5
:1004B000402000F0E7F81C20ADF8040048208DF83B
:1004C000070001A90848FFF75FFF0121042000F0A1
:1004D000D9F80120ADF8000028208DF80300694606
:1004E0000248FFF751FF1CBD001801400008014001
:1004F00008B50121082000F0C5F80121402000F0D6
:10050000C1F82020ADF8000003208DF80200102073
:100510008DF8030069460848FFF736FF694607482B
:10052000FFF732FF20210448FFF7BBFF20210348DB
:10053000FFF7B7FF08BD0000000C014000180140A4
:1005400000BFFEE700B585B00121084600F09AF82B
:1005500004210846FFF7F8FE03210420FFF7F4FE0C
:1005600000210846FFF7F0FE1820039000208DF8C8
:1005700010000C208DF8110001208DF8120003A846
:10058000FFF798FE0120009000208DF8040008205D
:100590008DF8050001208DF806006846FFF78AFEF9
:1005A0000A208DF8080002208DF8090000208DF83F
:1005B0000A0001208DF80B0002A800F01FF80920A6
:1005C0008DF8080002208DF8090001208DF80A003E
:1005D0008DF80B0002A800F011F806208DF8080035
:1005E00002208DF809008DF80A0001208DF80B001B
:1005F00002A800F003F805B000BD704770B50021F7
:1006000000230F22C47804B3154C246804F4E0647A
:10061000C4F5E064210AC1F10403CA40447804FA35
:1006200003F184781440214309010E4C0678A1554A
:10063000047804F01F050124AC4005786D11AD006D
:1006400005F1E025C5F8004109E0047804F01F0534
:100650000124AC40044D0678761145F8264070BD63
:100660000CED00E000E400E080E100E0024901431D
:10067000024A1160704700000000FA050CED00E02E
:100680007047000029B1064A92690243044B9A61FF
:1006900004E0034A92698243014B9A61704700006B
:1006A0000010024030B500210022002400232D4D0F
:1006B0006D6805F00C0121B1042905D0082923D16A
:1006C00005E0294D056022E0274D05601FE0254D1E
:1006D0006D6805F47012234D6D6805F480340225B1
:1006E00005EB92421CB9214D554305600BE01D4DB1
:1006F0006D6805F400351DB11C4D5543056002E0E1
:10070000194D5543056002E0174D056000BF00BF5D
:10071000144D6D6805F0F0010909154D6B5C056815
:10072000DD4045600F4D6D6805F4E061090A104D2C
:100730006B5C4568DD4085600A4D6D6805F460516D
:10074000C90A0B4D6B5C4568DD40C560054D6D68A1
:1007500005F44041890B074D6B5CC568B5FBF3F5AB
:10076000056130BD0010024000127A0000093D0012
:100770000000002010000020704710B500F002F8C3
:1007800010BD00000CB500200190009033480068B7
:1007900040F480303149086000BF3048006800F400
:1007A000003000900198401C0190009818B9019801
:1007B000B0F5A06FF1D12948006800F4003010B105
:1007C0000120009001E0002000900098012843D112
:1007D0002348006840F0100021490860084600687E
:1007E00020F0030008600846006840F0020008603E
:1007F0001A484068194948600846406848600846F9
:10080000406840F4806048600846406820F47C10EE
:1008100048600846406840F4E810486008460068B0
:1008200040F08070086000BF0C48006800F0007065
:100830000028F9D00948406820F0030007494860C3
:100840000846406840F00200486000BF0348406826
:1008500000F00C000828F9D10CBD00000010024087
:1008600000200240704700004FF0E020006920F0B7
:1008700004004FF0E021086109200549086008469E
:1008800000684FF47A7148430249086070470000DD
:10089000140000201800002010B51348006840F034
:1008A00001001149086008464068104908400E4997
:1008B0004860084600680E4908400B490860084631
:1008C000006820F4802008600846406820F4FE009C
:1008D00048604FF41F008860FFF74FFF4FF0006043
:1008E0000449086010BD0000001002400000FFF83D
:1008F000FFFFF6FE08ED00E010B500BF202105481F
:1009000000F087F80028F9D0024800F0FBF8C0B2E8
:1009100010BD00000038014070B505460E460024A9
:1009200007E0FFF7E9FF2855285D0A2800D103E01A
:10093000641C701EA042F4D800BF0021601E295420
:1009400070BD000000B585B001210420FFF79AFEBC
:1009500001218803FFF796FE4FF40070ADF81000F8
:1009600018208DF8130003208DF8120004A91348F5
:10097000FFF70AFD4FF48060ADF8100004208DF8F9
:10098000130004A90D48FFF7FFFC4FF4E13000907D
:100990000020ADF80400ADF80600ADF80800ADF891
:1009A0000C000C20ADF80A006946054800F03EF83E
:1009B0000121034800F021F805B000BD0008014006
:1009C0000038014010B5044600BF4021044800F043
:1009D00020F80028F9D02146014800F098F810BD11
:1009E0000038014010B5044603E02078FFF7EAFF25
:1009F000641C20780028F8D110BD21B1828942F40E
:100A00000052828104E082894DF6FF731A40828190
:100A1000704702460020B1F5007F00D100BF138867
:100A20000B400BB1012000E0002070472DE9F0479A
:100A300086B005460E460024A24600BFA146002708
:100A4000B08900B100BF2F462C8A4CF6FF700440DD
:100A5000F08804432C82AC894EF6F3100440B08831
:100A600031890843718908430443AC81AC8A4FF64D
:100A7000FF400440B0890443AC8201A8FFF712FE96
:100A80001F48874202D1DDF810A001E0DDF80CA07C
:100A9000A88900F4004040B10AEBCA0000EB0A103C
:100AA00031684900B0FBF1F807E00AEBCA0000EB3F
:100AB0000A1031688900B0FBF1F86420B8FBF0F04F
:100AC00004012009642101FB1089A88900F4004079
:100AD00040B1322000EBC900B0FBF1F000F007009C
:100AE000044308E0322000EB09106421B0FBF1F070
:100AF00000F00F0004432C8106B0BDE8F087000031
:100B00000038014001468888C0F308007047C1F3EF
:100B100008028280704700BFFEE702E008C8121F8B
:100B200008C1002AFAD170477047002001E001C1D6
:100B3000121F002AFBD170470146114A12684A432E
:100B40004FF0E0235A6100229A611A46126942F07E
:100B500001021A6100BF4FF0E022106900F00102AB
:100B60001AB100F48032002AF5D04FF0E022126969
:100B700022F001024FF0E0231A6100229A617047CF
:100B800018000020FFF792FCFFF76EFEFFF7B0FCA5
:100B9000FFF7FCFAFFF7D6FCFFF7D4FE4FF4A06096
:100BA000FFF764FD13E00AA0FFF71CFF80210F4848
:100BB000FFF7B2FE0EA1C8B2FFF704FF0DA0FFF7CA
:100BC00011FF0A48FFF70EFF09A0FFF70BFFEAE746
:100BD0000A20706C6561736520696E707574206D94
:100BE000657373616765200A000000001C00002027
:100BF0000A000000796F7520696E70757420697342
:100C00003A000000240C0008000000201C00000036
:100C10001A0B0008400C00081C000020840400008F
:100C20002A0B000800000000010203040102030473
:100C30000607080902040608000000000000000082
:0400000508000131BD
:00000001FF
